{
	"data": {
		"bytecode": {
			"linkReferences": {},
			"object": "6080604052600a5f55348015610013575f80fd5b50610406806100215f395ff3fe608060405234801561000f575f80fd5b5060043610610055575f3560e01c806305e30f51146100595780635206f1001461007557806354f363a314610093578063a1623dce146100c3578063cdeb3314146100df575b5f80fd5b610073600480360381019061006e9190610236565b61010f565b005b61007d610124565b60405161008a9190610270565b60405180910390f35b6100ad60048036038101906100a89190610289565b610129565b6040516100ba9190610270565b60405180910390f35b6100dd60048036038101906100d89190610236565b610179565b005b6100f960048036038101906100f49190610289565b61019c565b6040516101069190610270565b60405180910390f35b805f5461011c91906102f4565b5f8190555050565b5f5481565b5f81836101369190610335565b90507f099a8fd2a0841afbe8000d711d763bf2c54b2c63bed7b7f92a244ef4f515453683838360405161016b93929190610368565b60405180910390a192915050565b80600a8114610186575f80fd5b815f5461019391906102f4565b5f819055505050565b5f6101a783836101ea565b90507f02325f53408b10d20290d06f069ad56eb7ecae5db225e14d71cda2c523652c5b8383836040516101dc93929190610368565b60405180910390a192915050565b5f81836101f7919061039d565b905092915050565b5f80fd5b5f819050919050565b61021581610203565b811461021f575f80fd5b50565b5f813590506102308161020c565b92915050565b5f6020828403121561024b5761024a6101ff565b5b5f61025884828501610222565b91505092915050565b61026a81610203565b82525050565b5f6020820190506102835f830184610261565b92915050565b5f806040838503121561029f5761029e6101ff565b5b5f6102ac85828601610222565b92505060206102bd85828601610222565b9150509250929050565b7f4e487b71000000000000000000000000000000000000000000000000000000005f52601160045260245ffd5b5f6102fe82610203565b915061030983610203565b925082820261031781610203565b9150828204841483151761032e5761032d6102c7565b5b5092915050565b5f61033f82610203565b915061034a83610203565b9250828201905080821115610362576103616102c7565b5b92915050565b5f60608201905061037b5f830186610261565b6103886020830185610261565b6103956040830184610261565b949350505050565b5f6103a782610203565b91506103b283610203565b92508282039050818111156103ca576103c96102c7565b5b9291505056fea26469706673582212202ca161d4a59345355be7c1966ff4c5d367a624bae8df893d663db45909d0919364736f6c63430008180033",
			"opcodes": "PUSH1 0x80 PUSH1 0x40 MSTORE PUSH1 0xA PUSH0 SSTORE CALLVALUE DUP1 ISZERO PUSH2 0x13 JUMPI PUSH0 DUP1 REVERT JUMPDEST POP PUSH2 0x406 DUP1 PUSH2 0x21 PUSH0 CODECOPY PUSH0 RETURN INVALID PUSH1 0x80 PUSH1 0x40 MSTORE CALLVALUE DUP1 ISZERO PUSH2 0xF JUMPI PUSH0 DUP1 REVERT JUMPDEST POP PUSH1 0x4 CALLDATASIZE LT PUSH2 0x55 JUMPI PUSH0 CALLDATALOAD PUSH1 0xE0 SHR DUP1 PUSH4 0x5E30F51 EQ PUSH2 0x59 JUMPI DUP1 PUSH4 0x5206F100 EQ PUSH2 0x75 JUMPI DUP1 PUSH4 0x54F363A3 EQ PUSH2 0x93 JUMPI DUP1 PUSH4 0xA1623DCE EQ PUSH2 0xC3 JUMPI DUP1 PUSH4 0xCDEB3314 EQ PUSH2 0xDF JUMPI JUMPDEST PUSH0 DUP1 REVERT JUMPDEST PUSH2 0x73 PUSH1 0x4 DUP1 CALLDATASIZE SUB DUP2 ADD SWAP1 PUSH2 0x6E SWAP2 SWAP1 PUSH2 0x236 JUMP JUMPDEST PUSH2 0x10F JUMP JUMPDEST STOP JUMPDEST PUSH2 0x7D PUSH2 0x124 JUMP JUMPDEST PUSH1 0x40 MLOAD PUSH2 0x8A SWAP2 SWAP1 PUSH2 0x270 JUMP JUMPDEST PUSH1 0x40 MLOAD DUP1 SWAP2 SUB SWAP1 RETURN JUMPDEST PUSH2 0xAD PUSH1 0x4 DUP1 CALLDATASIZE SUB DUP2 ADD SWAP1 PUSH2 0xA8 SWAP2 SWAP1 PUSH2 0x289 JUMP JUMPDEST PUSH2 0x129 JUMP JUMPDEST PUSH1 0x40 MLOAD PUSH2 0xBA SWAP2 SWAP1 PUSH2 0x270 JUMP JUMPDEST PUSH1 0x40 MLOAD DUP1 SWAP2 SUB SWAP1 RETURN JUMPDEST PUSH2 0xDD PUSH1 0x4 DUP1 CALLDATASIZE SUB DUP2 ADD SWAP1 PUSH2 0xD8 SWAP2 SWAP1 PUSH2 0x236 JUMP JUMPDEST PUSH2 0x179 JUMP JUMPDEST STOP JUMPDEST PUSH2 0xF9 PUSH1 0x4 DUP1 CALLDATASIZE SUB DUP2 ADD SWAP1 PUSH2 0xF4 SWAP2 SWAP1 PUSH2 0x289 JUMP JUMPDEST PUSH2 0x19C JUMP JUMPDEST PUSH1 0x40 MLOAD PUSH2 0x106 SWAP2 SWAP1 PUSH2 0x270 JUMP JUMPDEST PUSH1 0x40 MLOAD DUP1 SWAP2 SUB SWAP1 RETURN JUMPDEST DUP1 PUSH0 SLOAD PUSH2 0x11C SWAP2 SWAP1 PUSH2 0x2F4 JUMP JUMPDEST PUSH0 DUP2 SWAP1 SSTORE POP POP JUMP JUMPDEST PUSH0 SLOAD DUP2 JUMP JUMPDEST PUSH0 DUP2 DUP4 PUSH2 0x136 SWAP2 SWAP1 PUSH2 0x335 JUMP JUMPDEST SWAP1 POP PUSH32 0x99A8FD2A0841AFBE8000D711D763BF2C54B2C63BED7B7F92A244EF4F5154536 DUP4 DUP4 DUP4 PUSH1 0x40 MLOAD PUSH2 0x16B SWAP4 SWAP3 SWAP2 SWAP1 PUSH2 0x368 JUMP JUMPDEST PUSH1 0x40 MLOAD DUP1 SWAP2 SUB SWAP1 LOG1 SWAP3 SWAP2 POP POP JUMP JUMPDEST DUP1 PUSH1 0xA DUP2 EQ PUSH2 0x186 JUMPI PUSH0 DUP1 REVERT JUMPDEST DUP2 PUSH0 SLOAD PUSH2 0x193 SWAP2 SWAP1 PUSH2 0x2F4 JUMP JUMPDEST PUSH0 DUP2 SWAP1 SSTORE POP POP POP JUMP JUMPDEST PUSH0 PUSH2 0x1A7 DUP4 DUP4 PUSH2 0x1EA JUMP JUMPDEST SWAP1 POP PUSH32 0x2325F53408B10D20290D06F069AD56EB7ECAE5DB225E14D71CDA2C523652C5B DUP4 DUP4 DUP4 PUSH1 0x40 MLOAD PUSH2 0x1DC SWAP4 SWAP3 SWAP2 SWAP1 PUSH2 0x368 JUMP JUMPDEST PUSH1 0x40 MLOAD DUP1 SWAP2 SUB SWAP1 LOG1 SWAP3 SWAP2 POP POP JUMP JUMPDEST PUSH0 DUP2 DUP4 PUSH2 0x1F7 SWAP2 SWAP1 PUSH2 0x39D JUMP JUMPDEST SWAP1 POP SWAP3 SWAP2 POP POP JUMP JUMPDEST PUSH0 DUP1 REVERT JUMPDEST PUSH0 DUP2 SWAP1 POP SWAP2 SWAP1 POP JUMP JUMPDEST PUSH2 0x215 DUP2 PUSH2 0x203 JUMP JUMPDEST DUP2 EQ PUSH2 0x21F JUMPI PUSH0 DUP1 REVERT JUMPDEST POP JUMP JUMPDEST PUSH0 DUP2 CALLDATALOAD SWAP1 POP PUSH2 0x230 DUP2 PUSH2 0x20C JUMP JUMPDEST SWAP3 SWAP2 POP POP JUMP JUMPDEST PUSH0 PUSH1 0x20 DUP3 DUP5 SUB SLT ISZERO PUSH2 0x24B JUMPI PUSH2 0x24A PUSH2 0x1FF JUMP JUMPDEST JUMPDEST PUSH0 PUSH2 0x258 DUP5 DUP3 DUP6 ADD PUSH2 0x222 JUMP JUMPDEST SWAP2 POP POP SWAP3 SWAP2 POP POP JUMP JUMPDEST PUSH2 0x26A DUP2 PUSH2 0x203 JUMP JUMPDEST DUP3 MSTORE POP POP JUMP JUMPDEST PUSH0 PUSH1 0x20 DUP3 ADD SWAP1 POP PUSH2 0x283 PUSH0 DUP4 ADD DUP5 PUSH2 0x261 JUMP JUMPDEST SWAP3 SWAP2 POP POP JUMP JUMPDEST PUSH0 DUP1 PUSH1 0x40 DUP4 DUP6 SUB SLT ISZERO PUSH2 0x29F JUMPI PUSH2 0x29E PUSH2 0x1FF JUMP JUMPDEST JUMPDEST PUSH0 PUSH2 0x2AC DUP6 DUP3 DUP7 ADD PUSH2 0x222 JUMP JUMPDEST SWAP3 POP POP PUSH1 0x20 PUSH2 0x2BD DUP6 DUP3 DUP7 ADD PUSH2 0x222 JUMP JUMPDEST SWAP2 POP POP SWAP3 POP SWAP3 SWAP1 POP JUMP JUMPDEST PUSH32 0x4E487B7100000000000000000000000000000000000000000000000000000000 PUSH0 MSTORE PUSH1 0x11 PUSH1 0x4 MSTORE PUSH1 0x24 PUSH0 REVERT JUMPDEST PUSH0 PUSH2 0x2FE DUP3 PUSH2 0x203 JUMP JUMPDEST SWAP2 POP PUSH2 0x309 DUP4 PUSH2 0x203 JUMP JUMPDEST SWAP3 POP DUP3 DUP3 MUL PUSH2 0x317 DUP2 PUSH2 0x203 JUMP JUMPDEST SWAP2 POP DUP3 DUP3 DIV DUP5 EQ DUP4 ISZERO OR PUSH2 0x32E JUMPI PUSH2 0x32D PUSH2 0x2C7 JUMP JUMPDEST JUMPDEST POP SWAP3 SWAP2 POP POP JUMP JUMPDEST PUSH0 PUSH2 0x33F DUP3 PUSH2 0x203 JUMP JUMPDEST SWAP2 POP PUSH2 0x34A DUP4 PUSH2 0x203 JUMP JUMPDEST SWAP3 POP DUP3 DUP3 ADD SWAP1 POP DUP1 DUP3 GT ISZERO PUSH2 0x362 JUMPI PUSH2 0x361 PUSH2 0x2C7 JUMP JUMPDEST JUMPDEST SWAP3 SWAP2 POP POP JUMP JUMPDEST PUSH0 PUSH1 0x60 DUP3 ADD SWAP1 POP PUSH2 0x37B PUSH0 DUP4 ADD DUP7 PUSH2 0x261 JUMP JUMPDEST PUSH2 0x388 PUSH1 0x20 DUP4 ADD DUP6 PUSH2 0x261 JUMP JUMPDEST PUSH2 0x395 PUSH1 0x40 DUP4 ADD DUP5 PUSH2 0x261 JUMP JUMPDEST SWAP5 SWAP4 POP POP POP POP JUMP JUMPDEST PUSH0 PUSH2 0x3A7 DUP3 PUSH2 0x203 JUMP JUMPDEST SWAP2 POP PUSH2 0x3B2 DUP4 PUSH2 0x203 JUMP JUMPDEST SWAP3 POP DUP3 DUP3 SUB SWAP1 POP DUP2 DUP2 GT ISZERO PUSH2 0x3CA JUMPI PUSH2 0x3C9 PUSH2 0x2C7 JUMP JUMPDEST JUMPDEST SWAP3 SWAP2 POP POP JUMP INVALID LOG2 PUSH5 0x6970667358 0x22 SLT KECCAK256 0x2C LOG1 PUSH2 0xD4A5 SWAP4 GASLIMIT CALLDATALOAD JUMPDEST 0xE7 0xC1 SWAP7 PUSH16 0xF4C5D367A624BAE8DF893D663DB45909 0xD0 SWAP2 SWAP4 PUSH5 0x736F6C6343 STOP ADDMOD XOR STOP CALLER "
		},
		"gasEstimates": {
			"creation": {
				"codeDepositCost": "206000",
				"executionCost": "22354",
				"totalCost": "228354"
			},
			"external": {
				"addition(uint256,uint256)": "infinite",
				"multiplier(uint256)": "infinite",
				"multiplier2(uint256)": "infinite",
				"resultado()": "2424",
				"substraction(uint256,uint256)": "infinite"
			},
			"internal": {
				"substraction_logic(uint256,uint256)": "infinite"
			}
		},
		"methodIdentifiers": {
			"addition(uint256,uint256)": "54f363a3",
			"multiplier(uint256)": "05e30f51",
			"multiplier2(uint256)": "a1623dce",
			"resultado()": "5206f100",
			"substraction(uint256,uint256)": "cdeb3314"
		}
	},
	"abi": [
		{
			"anonymous": false,
			"inputs": [
				{
					"indexed": false,
					"internalType": "uint256",
					"name": "number1",
					"type": "uint256"
				},
				{
					"indexed": false,
					"internalType": "uint256",
					"name": "number2",
					"type": "uint256"
				},
				{
					"indexed": false,
					"internalType": "uint256",
					"name": "resultado",
					"type": "uint256"
				}
			],
			"name": "Addition",
			"type": "event"
		},
		{
			"anonymous": false,
			"inputs": [
				{
					"indexed": false,
					"internalType": "uint256",
					"name": "number1",
					"type": "uint256"
				},
				{
					"indexed": false,
					"internalType": "uint256",
					"name": "number2",
					"type": "uint256"
				},
				{
					"indexed": false,
					"internalType": "uint256",
					"name": "resultado",
					"type": "uint256"
				}
			],
			"name": "Substraction",
			"type": "event"
		},
		{
			"inputs": [
				{
					"internalType": "uint256",
					"name": "num1_",
					"type": "uint256"
				},
				{
					"internalType": "uint256",
					"name": "num2_",
					"type": "uint256"
				}
			],
			"name": "addition",
			"outputs": [
				{
					"internalType": "uint256",
					"name": "resultado_",
					"type": "uint256"
				}
			],
			"stateMutability": "nonpayable",
			"type": "function"
		},
		{
			"inputs": [
				{
					"internalType": "uint256",
					"name": "num1_",
					"type": "uint256"
				}
			],
			"name": "multiplier",
			"outputs": [],
			"stateMutability": "nonpayable",
			"type": "function"
		},
		{
			"inputs": [
				{
					"internalType": "uint256",
					"name": "num1_",
					"type": "uint256"
				}
			],
			"name": "multiplier2",
			"outputs": [],
			"stateMutability": "nonpayable",
			"type": "function"
		},
		{
			"inputs": [],
			"name": "resultado",
			"outputs": [
				{
					"internalType": "uint256",
					"name": "",
					"type": "uint256"
				}
			],
			"stateMutability": "view",
			"type": "function"
		},
		{
			"inputs": [
				{
					"internalType": "uint256",
					"name": "num1_",
					"type": "uint256"
				},
				{
					"internalType": "uint256",
					"name": "num2_",
					"type": "uint256"
				}
			],
			"name": "substraction",
			"outputs": [
				{
					"internalType": "uint256",
					"name": "resultado_",
					"type": "uint256"
				}
			],
			"stateMutability": "nonpayable",
			"type": "function"
		}
	]
}