{
	"contracts/Programa/PayableFunctions/PayableContract.sol": {
		"PayableContract": {
			"abi": [
				{
					"inputs": [],
					"name": "sendEther",
					"outputs": [],
					"stateMutability": "payable",
					"type": "function"
				}
			],
			"devdoc": {
				"kind": "dev",
				"methods": {},
				"version": 1
			},
			"evm": {
				"assembly": "    /* \"contracts/Programa/PayableFunctions/PayableContract.sol\":71:287  contract PayableContract {... */\n  mstore(0x40, 0x80)\n  callvalue\n  dup1\n  iszero\n  tag_1\n  jumpi\n  0x00\n  dup1\n  revert\ntag_1:\n  pop\n  dataSize(sub_0)\n  dup1\n  dataOffset(sub_0)\n  0x00\n  codecopy\n  0x00\n  return\nstop\n\nsub_0: assembly {\n        /* \"contracts/Programa/PayableFunctions/PayableContract.sol\":71:287  contract PayableContract {... */\n      mstore(0x40, 0x80)\n      jumpi(tag_1, lt(calldatasize, 0x04))\n      shr(0xe0, calldataload(0x00))\n      dup1\n      0x0e29df22\n      eq\n      tag_2\n      jumpi\n    tag_1:\n      0x00\n      dup1\n      revert\n        /* \"contracts/Programa/PayableFunctions/PayableContract.sol\":232:282  function sendEther() public payable {... */\n    tag_2:\n      tag_3\n      tag_4\n      jump\t// in\n    tag_3:\n      stop\n    tag_4:\n      jump\t// out\n\n    auxdata: 0xa264697066735822122049c6f2e4fb4cddc0990df542e14c595d347982a67f347fd2186497d21bf6746264736f6c63430008180033\n}\n",
				"bytecode": {
					"linkReferences": {},
					"object": "6080604052348015600e575f80fd5b50605f80601a5f395ff3fe608060405260043610601b575f3560e01c80630e29df2214601f575b5f80fd5b60256027565b005b56fea264697066735822122049c6f2e4fb4cddc0990df542e14c595d347982a67f347fd2186497d21bf6746264736f6c63430008180033",
					"opcodes": "PUSH1 0x80 PUSH1 0x40 MSTORE CALLVALUE DUP1 ISZERO PUSH1 0xE JUMPI PUSH0 DUP1 REVERT JUMPDEST POP PUSH1 0x5F DUP1 PUSH1 0x1A PUSH0 CODECOPY PUSH0 RETURN INVALID PUSH1 0x80 PUSH1 0x40 MSTORE PUSH1 0x4 CALLDATASIZE LT PUSH1 0x1B JUMPI PUSH0 CALLDATALOAD PUSH1 0xE0 SHR DUP1 PUSH4 0xE29DF22 EQ PUSH1 0x1F JUMPI JUMPDEST PUSH0 DUP1 REVERT JUMPDEST PUSH1 0x25 PUSH1 0x27 JUMP JUMPDEST STOP JUMPDEST JUMP INVALID LOG2 PUSH5 0x6970667358 0x22 SLT KECCAK256 BLOBHASH 0xC6 CALLCODE 0xE4 0xFB 0x4C 0xDD 0xC0 SWAP10 0xD CREATE2 TIMESTAMP 0xE1 0x4C MSIZE TSTORE CALLVALUE PUSH26 0x82A67F347FD2186497D21BF6746264736F6C6343000818003300 "
				},
				"deployedBytecode": {
					"immutableReferences": {},
					"linkReferences": {},
					"object": "608060405260043610601b575f3560e01c80630e29df2214601f575b5f80fd5b60256027565b005b56fea264697066735822122049c6f2e4fb4cddc0990df542e14c595d347982a67f347fd2186497d21bf6746264736f6c63430008180033",
					"opcodes": "PUSH1 0x80 PUSH1 0x40 MSTORE PUSH1 0x4 CALLDATASIZE LT PUSH1 0x1B JUMPI PUSH0 CALLDATALOAD PUSH1 0xE0 SHR DUP1 PUSH4 0xE29DF22 EQ PUSH1 0x1F JUMPI JUMPDEST PUSH0 DUP1 REVERT JUMPDEST PUSH1 0x25 PUSH1 0x27 JUMP JUMPDEST STOP JUMPDEST JUMP INVALID LOG2 PUSH5 0x6970667358 0x22 SLT KECCAK256 BLOBHASH 0xC6 CALLCODE 0xE4 0xFB 0x4C 0xDD 0xC0 SWAP10 0xD CREATE2 TIMESTAMP 0xE1 0x4C MSIZE TSTORE CALLVALUE PUSH26 0x82A67F347FD2186497D21BF6746264736F6C6343000818003300 "
				},
				"gasEstimates": {
					"creation": {
						"codeDepositCost": "19000",
						"executionCost": "67",
						"totalCost": "19067"
					},
					"external": {
						"sendEther()": "97"
					}
				},
				"methodIdentifiers": {
					"sendEther()": "0e29df22"
				}
			},
			"storageLayout": {
				"storage": [],
				"types": null
			},
			"userdoc": {
				"kind": "user",
				"methods": {},
				"version": 1
			}
		}
	}
}