{
	"contracts/Programa/PayableFunctions/PyabaleContractv2.sol": {
		"PayableContractv2": {
			"abi": [
				{
					"inputs": [],
					"name": "sendEther",
					"outputs": [],
					"stateMutability": "payable",
					"type": "function"
				},
				{
					"inputs": [
						{
							"internalType": "uint256",
							"name": "amount",
							"type": "uint256"
						}
					],
					"name": "withdrawEther",
					"outputs": [],
					"stateMutability": "nonpayable",
					"type": "function"
				}
			],
			"devdoc": {
				"kind": "dev",
				"methods": {},
				"version": 1
			},
			"evm": {
				"assembly": "    /* \"contracts/Programa/PayableFunctions/PyabaleContractv2.sol\":71:379  contract PayableContractv2 {... */\n  mstore(0x40, 0x80)\n  callvalue\n  dup1\n  iszero\n  tag_1\n  jumpi\n  0x00\n  dup1\n  revert\ntag_1:\n  pop\n  dataSize(sub_0)\n  dup1\n  dataOffset(sub_0)\n  0x00\n  codecopy\n  0x00\n  return\nstop\n\nsub_0: assembly {\n        /* \"contracts/Programa/PayableFunctions/PyabaleContractv2.sol\":71:379  contract PayableContractv2 {... */\n      mstore(0x40, 0x80)\n      jumpi(tag_1, lt(calldatasize, 0x04))\n      shr(0xe0, calldataload(0x00))\n      dup1\n      0x0e29df22\n      eq\n      tag_2\n      jumpi\n      dup1\n      0x3bed33ce\n      eq\n      tag_3\n      jumpi\n    tag_1:\n      0x00\n      dup1\n      revert\n        /* \"contracts/Programa/PayableFunctions/PyabaleContractv2.sol\":107:146  function sendEther() public payable { } */\n    tag_2:\n      tag_4\n      tag_5\n      jump\t// in\n    tag_4:\n      stop\n        /* \"contracts/Programa/PayableFunctions/PyabaleContractv2.sol\":154:374  function withdrawEther(uint256 amount) public {... */\n    tag_3:\n      callvalue\n      dup1\n      iszero\n      tag_6\n      jumpi\n      0x00\n      dup1\n      revert\n    tag_6:\n      pop\n      tag_7\n      0x04\n      dup1\n      calldatasize\n      sub\n      dup2\n      add\n      swap1\n      tag_8\n      swap2\n      swap1\n      tag_9\n      jump\t// in\n    tag_8:\n      tag_10\n      jump\t// in\n    tag_7:\n      stop\n        /* \"contracts/Programa/PayableFunctions/PyabaleContractv2.sol\":107:146  function sendEther() public payable { } */\n    tag_5:\n      jump\t// out\n        /* \"contracts/Programa/PayableFunctions/PyabaleContractv2.sol\":154:374  function withdrawEther(uint256 amount) public {... */\n    tag_10:\n        /* \"contracts/Programa/PayableFunctions/PyabaleContractv2.sol\":265:277  bool success */\n      0x00\n        /* \"contracts/Programa/PayableFunctions/PyabaleContractv2.sol\":282:292  msg.sender */\n      caller\n        /* \"contracts/Programa/PayableFunctions/PyabaleContractv2.sol\":282:297  msg.sender.call */\n      0xffffffffffffffffffffffffffffffffffffffff\n      and\n        /* \"contracts/Programa/PayableFunctions/PyabaleContractv2.sol\":305:311  amount */\n      dup3\n        /* \"contracts/Programa/PayableFunctions/PyabaleContractv2.sol\":282:316  msg.sender.call{value: amount}(\"\") */\n      mload(0x40)\n      tag_13\n      swap1\n      tag_14\n      jump\t// in\n    tag_13:\n      0x00\n      mload(0x40)\n      dup1\n      dup4\n      sub\n      dup2\n      dup6\n      dup8\n      gas\n      call\n      swap3\n      pop\n      pop\n      pop\n      returndatasize\n      dup1\n      0x00\n      dup2\n      eq\n      tag_17\n      jumpi\n      mload(0x40)\n      swap2\n      pop\n      and(add(returndatasize, 0x3f), not(0x1f))\n      dup3\n      add\n      0x40\n      mstore\n      returndatasize\n      dup3\n      mstore\n      returndatasize\n      0x00\n      0x20\n      dup5\n      add\n      returndatacopy\n      jump(tag_16)\n    tag_17:\n      0x60\n      swap2\n      pop\n    tag_16:\n      pop\n        /* \"contracts/Programa/PayableFunctions/PyabaleContractv2.sol\":264:316  (bool success,) = msg.sender.call{value: amount}(\"\") */\n      pop\n      swap1\n      pop\n        /* \"contracts/Programa/PayableFunctions/PyabaleContractv2.sol\":335:342  success */\n      dup1\n        /* \"contracts/Programa/PayableFunctions/PyabaleContractv2.sol\":327:366  require(success, \"Ether was not sent.\") */\n      tag_18\n      jumpi\n      mload(0x40)\n      0x08c379a000000000000000000000000000000000000000000000000000000000\n      dup2\n      mstore\n      0x04\n      add\n      tag_19\n      swap1\n      tag_20\n      jump\t// in\n    tag_19:\n      mload(0x40)\n      dup1\n      swap2\n      sub\n      swap1\n      revert\n    tag_18:\n        /* \"contracts/Programa/PayableFunctions/PyabaleContractv2.sol\":200:374  {... */\n      pop\n        /* \"contracts/Programa/PayableFunctions/PyabaleContractv2.sol\":154:374  function withdrawEther(uint256 amount) public {... */\n      pop\n      jump\t// out\n        /* \"#utility.yul\":88:205   */\n    tag_22:\n        /* \"#utility.yul\":197:198   */\n      0x00\n        /* \"#utility.yul\":194:195   */\n      dup1\n        /* \"#utility.yul\":187:199   */\n      revert\n        /* \"#utility.yul\":334:411   */\n    tag_24:\n        /* \"#utility.yul\":371:378   */\n      0x00\n        /* \"#utility.yul\":400:405   */\n      dup2\n        /* \"#utility.yul\":389:405   */\n      swap1\n      pop\n        /* \"#utility.yul\":334:411   */\n      swap2\n      swap1\n      pop\n      jump\t// out\n        /* \"#utility.yul\":417:539   */\n    tag_25:\n        /* \"#utility.yul\":490:514   */\n      tag_39\n        /* \"#utility.yul\":508:513   */\n      dup2\n        /* \"#utility.yul\":490:514   */\n      tag_24\n      jump\t// in\n    tag_39:\n        /* \"#utility.yul\":483:488   */\n      dup2\n        /* \"#utility.yul\":480:515   */\n      eq\n        /* \"#utility.yul\":470:533   */\n      tag_40\n      jumpi\n        /* \"#utility.yul\":529:530   */\n      0x00\n        /* \"#utility.yul\":526:527   */\n      dup1\n        /* \"#utility.yul\":519:531   */\n      revert\n        /* \"#utility.yul\":470:533   */\n    tag_40:\n        /* \"#utility.yul\":417:539   */\n      pop\n      jump\t// out\n        /* \"#utility.yul\":545:684   */\n    tag_26:\n        /* \"#utility.yul\":591:596   */\n      0x00\n        /* \"#utility.yul\":629:635   */\n      dup2\n        /* \"#utility.yul\":616:636   */\n      calldataload\n        /* \"#utility.yul\":607:636   */\n      swap1\n      pop\n        /* \"#utility.yul\":645:678   */\n      tag_42\n        /* \"#utility.yul\":672:677   */\n      dup2\n        /* \"#utility.yul\":645:678   */\n      tag_25\n      jump\t// in\n    tag_42:\n        /* \"#utility.yul\":545:684   */\n      swap3\n      swap2\n      pop\n      pop\n      jump\t// out\n        /* \"#utility.yul\":690:1019   */\n    tag_9:\n        /* \"#utility.yul\":749:755   */\n      0x00\n        /* \"#utility.yul\":798:800   */\n      0x20\n        /* \"#utility.yul\":786:795   */\n      dup3\n        /* \"#utility.yul\":777:784   */\n      dup5\n        /* \"#utility.yul\":773:796   */\n      sub\n        /* \"#utility.yul\":769:801   */\n      slt\n        /* \"#utility.yul\":766:885   */\n      iszero\n      tag_44\n      jumpi\n        /* \"#utility.yul\":804:883   */\n      tag_45\n      tag_22\n      jump\t// in\n    tag_45:\n        /* \"#utility.yul\":766:885   */\n    tag_44:\n        /* \"#utility.yul\":924:925   */\n      0x00\n        /* \"#utility.yul\":949:1002   */\n      tag_46\n        /* \"#utility.yul\":994:1001   */\n      dup5\n        /* \"#utility.yul\":985:991   */\n      dup3\n        /* \"#utility.yul\":974:983   */\n      dup6\n        /* \"#utility.yul\":970:992   */\n      add\n        /* \"#utility.yul\":949:1002   */\n      tag_26\n      jump\t// in\n    tag_46:\n        /* \"#utility.yul\":939:1002   */\n      swap2\n      pop\n        /* \"#utility.yul\":895:1012   */\n      pop\n        /* \"#utility.yul\":690:1019   */\n      swap3\n      swap2\n      pop\n      pop\n      jump\t// out\n        /* \"#utility.yul\":1025:1172   */\n    tag_27:\n        /* \"#utility.yul\":1126:1137   */\n      0x00\n        /* \"#utility.yul\":1163:1166   */\n      dup2\n        /* \"#utility.yul\":1148:1166   */\n      swap1\n      pop\n        /* \"#utility.yul\":1025:1172   */\n      swap3\n      swap2\n      pop\n      pop\n      jump\t// out\n        /* \"#utility.yul\":1178:1292   */\n    tag_28:\n      pop\n      jump\t// out\n        /* \"#utility.yul\":1298:1696   */\n    tag_29:\n        /* \"#utility.yul\":1457:1460   */\n      0x00\n        /* \"#utility.yul\":1478:1561   */\n      tag_50\n        /* \"#utility.yul\":1559:1560   */\n      0x00\n        /* \"#utility.yul\":1554:1557   */\n      dup4\n        /* \"#utility.yul\":1478:1561   */\n      tag_27\n      jump\t// in\n    tag_50:\n        /* \"#utility.yul\":1471:1561   */\n      swap2\n      pop\n        /* \"#utility.yul\":1570:1663   */\n      tag_51\n        /* \"#utility.yul\":1659:1662   */\n      dup3\n        /* \"#utility.yul\":1570:1663   */\n      tag_28\n      jump\t// in\n    tag_51:\n        /* \"#utility.yul\":1688:1689   */\n      0x00\n        /* \"#utility.yul\":1683:1686   */\n      dup3\n        /* \"#utility.yul\":1679:1690   */\n      add\n        /* \"#utility.yul\":1672:1690   */\n      swap1\n      pop\n        /* \"#utility.yul\":1298:1696   */\n      swap2\n      swap1\n      pop\n      jump\t// out\n        /* \"#utility.yul\":1702:2081   */\n    tag_14:\n        /* \"#utility.yul\":1886:1889   */\n      0x00\n        /* \"#utility.yul\":1908:2055   */\n      tag_53\n        /* \"#utility.yul\":2051:2054   */\n      dup3\n        /* \"#utility.yul\":1908:2055   */\n      tag_29\n      jump\t// in\n    tag_53:\n        /* \"#utility.yul\":1901:2055   */\n      swap2\n      pop\n        /* \"#utility.yul\":2072:2075   */\n      dup2\n        /* \"#utility.yul\":2065:2075   */\n      swap1\n      pop\n        /* \"#utility.yul\":1702:2081   */\n      swap2\n      swap1\n      pop\n      jump\t// out\n        /* \"#utility.yul\":2087:2256   */\n    tag_30:\n        /* \"#utility.yul\":2171:2182   */\n      0x00\n        /* \"#utility.yul\":2205:2211   */\n      dup3\n        /* \"#utility.yul\":2200:2203   */\n      dup3\n        /* \"#utility.yul\":2193:2212   */\n      mstore\n        /* \"#utility.yul\":2245:2249   */\n      0x20\n        /* \"#utility.yul\":2240:2243   */\n      dup3\n        /* \"#utility.yul\":2236:2250   */\n      add\n        /* \"#utility.yul\":2221:2250   */\n      swap1\n      pop\n        /* \"#utility.yul\":2087:2256   */\n      swap3\n      swap2\n      pop\n      pop\n      jump\t// out\n        /* \"#utility.yul\":2262:2431   */\n    tag_31:\n        /* \"#utility.yul\":2402:2423   */\n      0x457468657220776173206e6f742073656e742e00000000000000000000000000\n        /* \"#utility.yul\":2398:2399   */\n      0x00\n        /* \"#utility.yul\":2390:2396   */\n      dup3\n        /* \"#utility.yul\":2386:2400   */\n      add\n        /* \"#utility.yul\":2379:2424   */\n      mstore\n        /* \"#utility.yul\":2262:2431   */\n      pop\n      jump\t// out\n        /* \"#utility.yul\":2437:2803   */\n    tag_32:\n        /* \"#utility.yul\":2579:2582   */\n      0x00\n        /* \"#utility.yul\":2600:2667   */\n      tag_57\n        /* \"#utility.yul\":2664:2666   */\n      0x13\n        /* \"#utility.yul\":2659:2662   */\n      dup4\n        /* \"#utility.yul\":2600:2667   */\n      tag_30\n      jump\t// in\n    tag_57:\n        /* \"#utility.yul\":2593:2667   */\n      swap2\n      pop\n        /* \"#utility.yul\":2676:2769   */\n      tag_58\n        /* \"#utility.yul\":2765:2768   */\n      dup3\n        /* \"#utility.yul\":2676:2769   */\n      tag_31\n      jump\t// in\n    tag_58:\n        /* \"#utility.yul\":2794:2796   */\n      0x20\n        /* \"#utility.yul\":2789:2792   */\n      dup3\n        /* \"#utility.yul\":2785:2797   */\n      add\n        /* \"#utility.yul\":2778:2797   */\n      swap1\n      pop\n        /* \"#utility.yul\":2437:2803   */\n      swap2\n      swap1\n      pop\n      jump\t// out\n        /* \"#utility.yul\":2809:3228   */\n    tag_20:\n        /* \"#utility.yul\":2975:2979   */\n      0x00\n        /* \"#utility.yul\":3013:3015   */\n      0x20\n        /* \"#utility.yul\":3002:3011   */\n      dup3\n        /* \"#utility.yul\":2998:3016   */\n      add\n        /* \"#utility.yul\":2990:3016   */\n      swap1\n      pop\n        /* \"#utility.yul\":3062:3071   */\n      dup2\n        /* \"#utility.yul\":3056:3060   */\n      dup2\n        /* \"#utility.yul\":3052:3072   */\n      sub\n        /* \"#utility.yul\":3048:3049   */\n      0x00\n        /* \"#utility.yul\":3037:3046   */\n      dup4\n        /* \"#utility.yul\":3033:3050   */\n      add\n        /* \"#utility.yul\":3026:3073   */\n      mstore\n        /* \"#utility.yul\":3090:3221   */\n      tag_60\n        /* \"#utility.yul\":3216:3220   */\n      dup2\n        /* \"#utility.yul\":3090:3221   */\n      tag_32\n      jump\t// in\n    tag_60:\n        /* \"#utility.yul\":3082:3221   */\n      swap1\n      pop\n        /* \"#utility.yul\":2809:3228   */\n      swap2\n      swap1\n      pop\n      jump\t// out\n\n    auxdata: 0xa264697066735822122060b3eaae7a829449211ce99787657257c826ba1901ce0d3bab38ac24d760049764736f6c63430008180033\n}\n",
				"bytecode": {
					"linkReferences": {},
					"object": "608060405234801561000f575f80fd5b5061025d8061001d5f395ff3fe608060405260043610610028575f3560e01c80630e29df221461002c5780633bed33ce14610036575b5f80fd5b61003461005e565b005b348015610041575f80fd5b5061005c60048036038101906100579190610143565b610060565b005b565b5f3373ffffffffffffffffffffffffffffffffffffffff16826040516100859061019b565b5f6040518083038185875af1925050503d805f81146100bf576040519150601f19603f3d011682016040523d82523d5f602084013e6100c4565b606091505b5050905080610108576040517f08c379a00000000000000000000000000000000000000000000000000000000081526004016100ff90610209565b60405180910390fd5b5050565b5f80fd5b5f819050919050565b61012281610110565b811461012c575f80fd5b50565b5f8135905061013d81610119565b92915050565b5f602082840312156101585761015761010c565b5b5f6101658482850161012f565b91505092915050565b5f81905092915050565b50565b5f6101865f8361016e565b915061019182610178565b5f82019050919050565b5f6101a58261017b565b9150819050919050565b5f82825260208201905092915050565b7f457468657220776173206e6f742073656e742e000000000000000000000000005f82015250565b5f6101f36013836101af565b91506101fe826101bf565b602082019050919050565b5f6020820190508181035f830152610220816101e7565b905091905056fea264697066735822122060b3eaae7a829449211ce99787657257c826ba1901ce0d3bab38ac24d760049764736f6c63430008180033",
					"opcodes": "PUSH1 0x80 PUSH1 0x40 MSTORE CALLVALUE DUP1 ISZERO PUSH2 0xF JUMPI PUSH0 DUP1 REVERT JUMPDEST POP PUSH2 0x25D DUP1 PUSH2 0x1D PUSH0 CODECOPY PUSH0 RETURN INVALID PUSH1 0x80 PUSH1 0x40 MSTORE PUSH1 0x4 CALLDATASIZE LT PUSH2 0x28 JUMPI PUSH0 CALLDATALOAD PUSH1 0xE0 SHR DUP1 PUSH4 0xE29DF22 EQ PUSH2 0x2C JUMPI DUP1 PUSH4 0x3BED33CE EQ PUSH2 0x36 JUMPI JUMPDEST PUSH0 DUP1 REVERT JUMPDEST PUSH2 0x34 PUSH2 0x5E JUMP JUMPDEST STOP JUMPDEST CALLVALUE DUP1 ISZERO PUSH2 0x41 JUMPI PUSH0 DUP1 REVERT JUMPDEST POP PUSH2 0x5C PUSH1 0x4 DUP1 CALLDATASIZE SUB DUP2 ADD SWAP1 PUSH2 0x57 SWAP2 SWAP1 PUSH2 0x143 JUMP JUMPDEST PUSH2 0x60 JUMP JUMPDEST STOP JUMPDEST JUMP JUMPDEST PUSH0 CALLER PUSH20 0xFFFFFFFFFFFFFFFFFFFFFFFFFFFFFFFFFFFFFFFF AND DUP3 PUSH1 0x40 MLOAD PUSH2 0x85 SWAP1 PUSH2 0x19B JUMP JUMPDEST PUSH0 PUSH1 0x40 MLOAD DUP1 DUP4 SUB DUP2 DUP6 DUP8 GAS CALL SWAP3 POP POP POP RETURNDATASIZE DUP1 PUSH0 DUP2 EQ PUSH2 0xBF JUMPI PUSH1 0x40 MLOAD SWAP2 POP PUSH1 0x1F NOT PUSH1 0x3F RETURNDATASIZE ADD AND DUP3 ADD PUSH1 0x40 MSTORE RETURNDATASIZE DUP3 MSTORE RETURNDATASIZE PUSH0 PUSH1 0x20 DUP5 ADD RETURNDATACOPY PUSH2 0xC4 JUMP JUMPDEST PUSH1 0x60 SWAP2 POP JUMPDEST POP POP SWAP1 POP DUP1 PUSH2 0x108 JUMPI PUSH1 0x40 MLOAD PUSH32 0x8C379A000000000000000000000000000000000000000000000000000000000 DUP2 MSTORE PUSH1 0x4 ADD PUSH2 0xFF SWAP1 PUSH2 0x209 JUMP JUMPDEST PUSH1 0x40 MLOAD DUP1 SWAP2 SUB SWAP1 REVERT JUMPDEST POP POP JUMP JUMPDEST PUSH0 DUP1 REVERT JUMPDEST PUSH0 DUP2 SWAP1 POP SWAP2 SWAP1 POP JUMP JUMPDEST PUSH2 0x122 DUP2 PUSH2 0x110 JUMP JUMPDEST DUP2 EQ PUSH2 0x12C JUMPI PUSH0 DUP1 REVERT JUMPDEST POP JUMP JUMPDEST PUSH0 DUP2 CALLDATALOAD SWAP1 POP PUSH2 0x13D DUP2 PUSH2 0x119 JUMP JUMPDEST SWAP3 SWAP2 POP POP JUMP JUMPDEST PUSH0 PUSH1 0x20 DUP3 DUP5 SUB SLT ISZERO PUSH2 0x158 JUMPI PUSH2 0x157 PUSH2 0x10C JUMP JUMPDEST JUMPDEST PUSH0 PUSH2 0x165 DUP5 DUP3 DUP6 ADD PUSH2 0x12F JUMP JUMPDEST SWAP2 POP POP SWAP3 SWAP2 POP POP JUMP JUMPDEST PUSH0 DUP2 SWAP1 POP SWAP3 SWAP2 POP POP JUMP JUMPDEST POP JUMP JUMPDEST PUSH0 PUSH2 0x186 PUSH0 DUP4 PUSH2 0x16E JUMP JUMPDEST SWAP2 POP PUSH2 0x191 DUP3 PUSH2 0x178 JUMP JUMPDEST PUSH0 DUP3 ADD SWAP1 POP SWAP2 SWAP1 POP JUMP JUMPDEST PUSH0 PUSH2 0x1A5 DUP3 PUSH2 0x17B JUMP JUMPDEST SWAP2 POP DUP2 SWAP1 POP SWAP2 SWAP1 POP JUMP JUMPDEST PUSH0 DUP3 DUP3 MSTORE PUSH1 0x20 DUP3 ADD SWAP1 POP SWAP3 SWAP2 POP POP JUMP JUMPDEST PUSH32 0x457468657220776173206E6F742073656E742E00000000000000000000000000 PUSH0 DUP3 ADD MSTORE POP JUMP JUMPDEST PUSH0 PUSH2 0x1F3 PUSH1 0x13 DUP4 PUSH2 0x1AF JUMP JUMPDEST SWAP2 POP PUSH2 0x1FE DUP3 PUSH2 0x1BF JUMP JUMPDEST PUSH1 0x20 DUP3 ADD SWAP1 POP SWAP2 SWAP1 POP JUMP JUMPDEST PUSH0 PUSH1 0x20 DUP3 ADD SWAP1 POP DUP2 DUP2 SUB PUSH0 DUP4 ADD MSTORE PUSH2 0x220 DUP2 PUSH2 0x1E7 JUMP JUMPDEST SWAP1 POP SWAP2 SWAP1 POP JUMP INVALID LOG2 PUSH5 0x6970667358 0x22 SLT KECCAK256 PUSH1 0xB3 0xEA 0xAE PUSH27 0x829449211CE99787657257C826BA1901CE0D3BAB38AC24D7600497 PUSH5 0x736F6C6343 STOP ADDMOD XOR STOP CALLER "
				},
				"gasEstimates": {
					"creation": {
						"codeDepositCost": "121000",
						"executionCost": "163",
						"totalCost": "121163"
					},
					"external": {
						"sendEther()": "97",
						"withdrawEther(uint256)": "infinite"
					}
				},
				"methodIdentifiers": {
					"sendEther()": "0e29df22",
					"withdrawEther(uint256)": "3bed33ce"
				}
			},
			"storageLayout": {
				"storage": [],
				"types": null
			},
			"userdoc": {
				"kind": "user",
				"methods": {},
				"version": 1
			}
		}
	}
}